:100000000C9434000C9449000C9449000C94490061
:100010000C9449000C9449000C9449000C9449003C
:100020000C9449000C9449000C9449000C9449002C
:100030000C9449000C9449000C9449000C9449001C
:100040000C9449000C9449000C9449000C9449000C
:100050000C9449000C9449000C9449000C944900FC
:100060000C9449000C94490011241FBECFEFD8E036
:10007000DEBFCDBF11E0A0E0B1E0EAE3F8E002C0EE
:1000800005900D92A032B107D9F70E9467020C9437
:100090001B040C94000080E480937C0087E880932C
:1000A0007A00089590917C008770987F892B8093C7
:1000B0007C0080917A00806480937A0080917A003D
:1000C00086FDFCCF2091780030917900C901089518
:1000D000589A000000000000589808951F93182FA8
:1000E00081E28A95F1F75A98599A15B8812F82952D
:1000F0008F7085B90E94680015B81F7015B90E94ED
:10010000680015B81F9108951F93CF93DF93EC01FA
:1001100011E206C021960E946E00812F8A95F1F7A8
:1001200088818823B9F7DF91CF911F9108950E94AC
:100130006E0081E28A95F1F708951F93182F81E2EE
:100140008A95F1F78BB1897F8BB915B8812F82958C
:100150008F7085B90E94680015B81F7015B90E948C
:10016000680015B81F91089581E00E949D0081E20A
:100170008A95F1F708958158ECE1F1E0E60FF11D61
:100180009081890F0E949D008AEF90E00197F1F71E
:1001900008950F931F9304EF11E0C8010197F1F741
:1001A0008AB187608AB98FEF84B988E893E10197B3
:1001B000F1F780E30E949D0080E30E949D0080E2B1
:1001C0000E949D0081E00E949D00C8010197F1F707
:1001D00088E20E949D0010E1812F8A95F1F78CE062
:1001E0000E949D00812F8A95F1F71A95F1F780E81A
:1001F0000E949D001F910F91089588E10E949D002B
:1002000081E28A95F1F708958CE10E949D0081E2D8
:100210008A95F1F708952F923F924F925F926F92D5
:100220007F928F929F92AF92BF92CF92DF92EF9286
:10023000FF920F931F93CF93DF93C0E0D0E0482E3F
:1002400055243B018824992489E1282E312C41C072
:100250000E94FD00C401B3010E94BD025B016C015C
:1002600020E030E04AE753E40E944B037B018C011D
:1002700020E030E040E85FE30E948D0288231CF418
:1002800061E070E022C0C801B70120E03FEF4FE716
:1002900057E40E9447031816A4F4C601B50120E0F4
:1002A00030E040E251E40E944B030E94910205C0FD
:1002B000C1010197F1F76150704061157105C1F7F7
:1002C00007C0C801B7010E949102CB010197F1F765
:1002D0002196C415D5050CF4BBCF81E28A95F1F7C0
:1002E000DF91CF911F910F91FF90EF90DF90CF9012
:1002F000BF90AF909F908F907F906F905F904F9046
:100300003F902F9008952F923F924F925F926F925D
:100310007F928F929F92AF92BF92CF92DF92EF9295
:10032000FF920F931F93CF93DF93C0E0D0E0482E4E
:1003300055243B018824992499E1292E312C41C070
:100340000E940401C401B3010E94BD025B016C0163
:1003500020E030E04AE753E40E944B037B018C012C
:1003600020E030E040E85FE30E948D0288231CF427
:1003700061E070E022C0C801B70120E03FEF4FE725
:1003800057E40E9447031816A4F4C601B50120E003
:1003900030E040E251E40E944B030E94910205C00C
:1003A000C1010197F1F76150704061157105C1F706
:1003B00007C0C801B7010E949102CB010197F1F774
:1003C0002196C415D5050CF4BBCF81E28A95F1F7CF
:1003D000DF91CF911F910F91FF90EF90DF90CF9021
:1003E000BF90AF909F908F907F906F905F904F9055
:1003F0003F902F90089580E10E949D0081E28A95B0
:10040000F1F7089584E10E949D0081E28A95F1F759
:100410000895882321F0813029F48CE001C088E020
:100420000E949D0081E28A95F1F70895813039F0AC
:10043000813018F0823041F404C08CE003C08EE0BB
:1004400001C08FE00E949D0081E28A95F1F7089536
:100450001F93182F81E0612F0E94BB0080E091E084
:100460000E94840081E0612F0E94BB001F910895CB
:10047000EF92FF920F931F93DF93CF93CDB7DEB729
:10048000EDB6FEB62DB73EB7261B31090FB6F89470
:100490003EBF0FBE2DBF0DB71EB70F5F1F4F90E0C1
:1004A000B8014AE050E00E94D603C8010E948400CF
:1004B00081E28A95F1F70FB6F894FEBE0FBEEDBE4D
:1004C000CF91DF911F910F91FF90EF900895CF93FF
:1004D000DF930E94C90080E480937C0087E88093CA
:1004E0007A0081E061E00E94BB0081E191E00E941E
:1004F0008400C8EAD1E681E061E00E94BB0085E0AB
:100500000E94520064E00E9438028AE191E00E9459
:100510008400CE010197F1F7EECF6CD008F481E0B2
:10052000089594D088F09F5790F0B92F9927B7512C
:10053000A0F0D1F0660F771F881F991F1AF0BA95A7
:10054000C9F712C0B13081F09BD0B1E0089598C0D6
:10055000672F782F8827B85F39F0B93FCCF386959D
:1005600077956795B395D9F73EF4909580957095FA
:1005700061957F4F8F4F9F4F0895E89409C097FB77
:100580003EF490958095709561957F4F8F4F9F4F6A
:100590009923A9F0F92F96E9BB279395F6958795AE
:1005A00077956795B795F111F8CFFAF4BB0F11F471
:1005B00060FF1BC06F5F7F4F8F4F9F4F16C0882318
:1005C00011F096E911C0772321F09EE8872F762F4E
:1005D00005C0662371F096E8862F70E060E02AF08F
:1005E0009A95660F771F881FDAF7880F969587957B
:1005F00097F90895990F0008550FAA0BE0E8FEEF50
:1006000016161706E807F907C0F012161306E407D6
:10061000F50798F0621B730B840B950B39F40A26CF
:1006200061F0232B242B252B21F408950A2609F4AD
:10063000A140A6958FEF811D811D089557FD90580B
:10064000440F551F59F05F3F71F04795880F97FB96
:10065000991F61F09F3F79F0879508951216130650
:100660001406551FF2CF4695F1DF08C0161617067F
:100670001806991FF1CF86957105610508940895B4
:10068000E894BB2766277727CB0197F90895B2DF57
:1006900008F48FEF08950BD078C069D028F06ED0A1
:1006A00018F0952309F05AC05FC01124EACFC6DFC5
:1006B000A0F3959FD1F3950F50E0551F629FF00175
:1006C000729FBB27F00DB11D639FAA27F00DB11DCE
:1006D000AA1F649F6627B00DA11D661F829F222757
:1006E000B00DA11D621F739FB00DA11D621F839FDE
:1006F000A00D611D221F749F3327A00D611D231FB4
:10070000849F600D211D822F762F6A2F11249F5701
:1007100050408AF0E1F088234AF0EE0FFF1FBB1F24
:10072000661F771F881F91505040A9F79E3F5105C3
:1007300070F014C0A6CF5F3FECF3983EDCF38695D3
:1007400077956795B795F795E7959F5FC1F7FE2B6E
:10075000880F911D9695879597F9089597F99F674A
:1007600080E870E060E008959FEF80EC0895002439
:100770000A941616170618060906089500240A9406
:1007800012161306140605060895092E0394000C8C
:1007900011F4882352F0BB0F40F4BF2B11F460FF1B
:1007A00004C06F5F7F4F8F4F9F4F0895FB019F01E4
:1007B000E8944230C4F04532B4F44A3029F497FB4F
:1007C0001EF4909581959F4F642F77270E94070410
:1007D000805D8A330CF0895D8193CB010097A1F78E
:1007E00016F45DE251931082C9010C94F703DC0109
:1007F000FC01672F71917723E1F7329704C07C9158
:100800006D9370836291AE17BF07C8F30895AA1B5A
:10081000BB1B51E107C0AA1FBB1FA617B70710F0EB
:10082000A61BB70B881F991F5A95A9F7809590951D
:0A083000BC01CD010895F894FFCF3C
:10083A0020202020202020202020202020202020AE
:10084A0000537761706E65656C00202000004000DF
:00000001FF
