:100000000C9440000C945D000C945D000C945D0019
:100010000C945D000C945D000C945D000C945D00EC
:100020000C945D000C945D000C945D000C945D00DC
:100030000C945D000C945D000C945D000C945D00CC
:100040000C945D000C945D000C945F000C948D008A
:100050000C945D000C945D000C945D000C945D00AC
:100060000C945D000C945D00537472696E6720738C
:10007000746F72656420696E20464C4153480A00D3
:1000800011241FBECFEFD8E0DEBFCDBF11E0A0E04E
:10009000B1E0E2E3F3E002C005900D92A831B107B0
:1000A000D9F711E0A8E1B1E001C01D92AD35B1076B
:1000B000E1F70E9423010C9497010C9400001F9219
:1000C0000F920FB60F9211242F938F939F93EF935C
:1000D000FF939091C0002091C600E0915A01EF5F1C
:1000E000EF7180915B01E81711F492E007C09C71F9
:1000F000E0935A01F0E0E85CFE4F208380915C01C0
:10010000982B90935C01FF91EF919F918F912F918C
:100110000F900FBE0F901F9018951F920F920FB661
:100120000F9211248F939F93EF93FF939091580117
:1001300080915901981769F0E0915901EF5FEF71D3
:10014000E0935901F0E0E85EFE4F80818093C600A5
:1001500005C08091C1008F7D8093C100FF91EF9118
:100160009F918F910F900FBE0F901F9018959C013B
:10017000109258011092590110925A0110925B018D
:1001800097FF03C082E08093C000832F8078809324
:10019000C5002093C40088E98093C10086E0809365
:1001A000C200089590915A0180915B01981719F44B
:1001B00020E031E015C080915B018F5F8F71E82FE7
:1001C000F0E0E85CFE4F308120915C0180935B01A0
:1001D00010925C01922F80E0AC01430F511D9A01F7
:1001E000C9010895282F909158019F5F9F718091B8
:1001F00059019817E1F3E92FF0E0E85EFE4F208304
:10020000909358018091C10080628093C10008954D
:10021000CF93DF93EC0103C021960E94F200888106
:100220008823D1F7DF91CF910895CF93DF93EC012D
:1002300002C00E94F200FE01219684918823C9F732
:10024000DF91CF9108951F93DF93CF93CDB7DEB7A2
:1002500027970FB6F894DEBF0FBECDBF86E090E0C3
:100260000E94B700789480E091E00E94080188E63F
:1002700090E00E94150186E890E0BE016F5F7F4F1D
:100280004AE050E00E9452018DE00E94F2000E947C
:10029000D200182F792F612F4AE050E00E945201BE
:1002A000812FF3CFFB019F01E8944230C4F0453227
:1002B000B4F44A3029F497FB1EF4909581959F4F32
:1002C000642F77270E948301805D8A330CF0895D5B
:1002D0008193CB010097A1F716F45DE25193108250
:1002E000C9010C947301DC01FC01672F7191772324
:1002F000E1F7329704C07C916D9370836291AE17E1
:10030000BF07C8F30895AA1BBB1B51E107C0AA1F72
:10031000BB1FA617B70710F0A61BB70B881F991FA6
:100320005A95A9F780959095BC01CD010895F89450
:02033000FFCFFD
:10033200537472696E672073746F72656420696E9C
:08034200205352414D0A000056
:00000001FF
