:020000040800F2
:100000003804002081020008E1020008E102000833
:10001000E1020008E1020008E1020008000000001F
:10002000000000000000000000000000E1020008E5
:10003000E102000800000000E1020008E1020008FF
:10004000E1020008E1020008E1020008E102000804
:10005000E1020008E1020008E1020008E1020008F4
:10006000E1020008E1020008E1020008E1020008E4
:10007000E1020008E1020008E1020008E1020008D4
:10008000E1020008E1020008E1020008E1020008C4
:10009000E1020008E1020008E1020008E1020008B4
:1000A000E1020008E1020008E1020008E1020008A4
:1000B000E1020008E1020008E1020008E102000894
:1000C000E1020008E1020008E1020008E102000884
:1000D000E102000861040008E1020008E1020008F2
:1000E000E1020008E1020008E1020008000000004F
:1000F0000000000000000000000000000000000000
:1001000000000000000000005FF808F180B500AFBB
:10011000154A154B1B6843F0010313601249124B3B
:100120005A68124B13404B600F4A0F4B1B6823F069
:10013000847323F4803313600B4A0B4B1B6823F446
:1001400080231360084A084B5B6823F4FE03536066
:10015000054B4FF41F029A6000F00CF8044B4FF06F
:1001600000629A6000BF80BD001002400000FFF8EE
:1001700000ED00E080B500AF00F002F800BF80BDE8
:1001800080B483B000AF00237B6000233B603A4A19
:10019000394B1B6843F480331360374B1B6803F4FF
:1001A00000333B607B6801337B603B68002B03D1ED
:1001B0007B68B3F5A06FF0D12F4B1B6803F40033BD
:1001C000002B02D001233B6001E000233B603B6831
:1001D000012B4BD1294A294B1B6843F010031360B4
:1001E000264A264B1B6823F003031360234A234B44
:1001F0001B6843F0020313601F4A1F4B5B68536088
:100200001D4A1D4B5B6853601B4A1B4B5B6843F4E4
:1002100080635360184A184B5B6823F47C13536067
:10022000154A154B5B6843F4E8135360124A124BAE
:100230001B6843F08073136000BF0F4B1B6803F013
:100240000073002BF9D00C4A0B4B5B6823F00303BF
:100250005360094A084B5B6843F00203536000BFD8
:10026000054B5B6803F00C03082BF9D100BF0C377A
:10027000BD4680BC704700BF001002400020024015
:1002800080B582B000AF114B7B60114B3B6007E043
:100290003B681A1D3A607A68111D796012681A600D
:1002A0003B680C4A9342F3D30B480C494FF00002D1
:1002B0008842B8BF40F8042BFADBFFF727FF00F0B5
:1002C00015F900BF0837BD4680BD00BF9E1200086B
:1002D000000000201400002014000020380000203E
:1002E00080B400AFFEE700BF80B489B000AF786093
:1002F00039600023FB6100233B610023BB610023C5
:10030000FB6000237B610023BB603B68DB7803F06C
:100310000F03FB613B68DB7803F01003002B05D073
:100320003B689B781A46FB691343FB613B681B885B
:10033000DBB2002B44D07B681B687B610023BB6170
:1003400038E00122BB6902FA03F3FB603B681B88BB
:100350001A46FB6813403B613A69FB689A4226D112
:10036000BB699B00FB600F22FB6802FA03F3BB60D2
:10037000BB68DB437A6913407B61FA69FB6802FA68
:1003800003F37A6913437B613B68DB78282B05D143
:100390000122BB699A407B685A6108E03B68DB78C0
:1003A000482B04D10122BB699A407B681A61BB6962
:1003B0000133BB61BB69072BC3D97B687A691A60BB
:1003C0003B681B88FF2B46D97B685B687B610023F9
:1003D000BB613AE0BB690833012202FA03F3FB6018
:1003E0003B681B881A46FB6813403B613A69FB680F
:1003F0009A4227D1BB699B00FB600F22FB6802FA7F
:1004000003F3BB60BB68DB437A6913407B61FA6925
:10041000FB6802FA03F37A6913437B613B68DB787C
:10042000282B05D1BB69083301229A407B685A61A9
:100430003B68DB78482B05D1BB69083301229A4021
:100440007B681A61BB690133BB61BB69072BC1D9EA
:100450007B687A695A6000BF2437BD4680BC70470C
:1004600080B500AF1B4B1B889BB203F02003002B11
:100470002DD0184800F016FE0346DAB2164B1A705B
:10048000164B1B68042B16D1144B1B68124A1178AB
:10049000134AD154114B1B680133114A0021D15426
:1004A0000E4B00221A600E490E4800F089FE0E4BDA
:1004B00001221A700BE0094B1B685A1C07490A609D
:1004C000054A1178064AD154074B00221A7000BF22
:1004D00080BD00BF003801401D0000201400002036
:1004E000300000202800002018000020B0B588B09F
:1004F00000AF1C4B3C1D1D460FCD0FC495E80700F7
:1005000003C42280012144F2040000F05BFC0121BD
:100510004FF4003000F074FC00F08AF800F030F87E
:1005200000F04EF8012240F225510F4800F060FD26
:100530003B1D184600F090F80C4800F08DF80B4871
:1005400000F0BAF803461A4609490A4800F074FB5D
:10055000084800F081F8084800F07EF8074800F0ED
:100560009BF8E9E7841200080038014028000020C9
:100570007C120008200000208012000840420F007A
:1005800080B582B000AF4FF40173BB801823FB71BC
:100590000323BB713B1D19460848FFF7A5FE4FF426
:1005A0008163BB800423FB713B1D19460348FFF7A1
:1005B0009BFE00BF0837BD4680BD00BF000801405C
:1005C00080B584B000AF4FF4E1333B600023BB80C3
:1005D0000023FB8000233B810023BB810C237B8114
:1005E0003B461946104800F029FC01210E4800F056
:1005F000DFFC4FF4E1333B600023BB800023FB8032
:1006000000233B810023BB8108237B813B461946A5
:10061000064800F013FC0121044800F0C9FC00BFAB
:100620001037BD4680BD00BF003801400044004087
:1006300080B582B000AF25233B7100237B7100237E
:10064000BB710123FB713B1D184600F057FD00BF35
:100650000837BD4680BD00BF80B582B000AF78606E
:1006600010E07B685A1C7A601B789BB219460948D7
:1006700000F006FD00BF4021064800F023FD0346C0
:10068000002BF8D07B681B78002BEAD100BF08371D
:10069000BD4680BD0044004080B483B000AF7860A8
:1006A00000BF7B685A1E7A60002BFAD100BF0C375E
:1006B000BD4680BC704700BF80B485B000AF786095
:1006C0000023FB730023FB730FE0FB7B7A6813446A
:1006D0001B782C2B03D1FB7B0133FB7305E0FB7BE9
:1006E0007A6813441B789BB203E0FB7B032BECD9A5
:1006F000002318461437BD4680BC704780B483B0D1
:1007000000AF78600B46FB707B68FA781A700123A3
:1007100018460C37BD4680BC704700BF80B485B01A
:1007200000AF786039600023FB600AE07B685A1CE8
:100730007A603A68511C396012781A70FB6801338C
:10074000FB603B681B78002BF0D1FB681846143720
:10075000BD4680BC704700BF80B586B000AFF86072
:100760007A603B600B46FB7200237B617B68013B38
:100770007B603B68092B1DD93B681D4AA2FB032304
:10078000DB08F97A7A68F868FFF7E6FF78617B6939
:10079000FA681344FB6010E0FB7A1946F868FFF72B
:1007A000ADFFFB680133FB607B6901337B617B68D4
:1007B000013B7B607B68002BEEDC39680C4BA3FBB4
:1007C0000123DA0813469B0013445B00CA1AD3B214
:1007D0003033DBB21946F868FFF790FF02467B69B9
:1007E00013447B617B6918461837BD4680BD00BF46
:1007F000CDCCCCCC80B586B000AFF8607A603B60E1
:100800000B46FB7200237B613B68002B03DA3B68DD
:100810005B423B6101E03B683B617B68013B7B6085
:100820003B69092B1FD93B68002B0CDA3B692E4A28
:10083000A2FB0323DB085B42F97A7A68F868FFF7CA
:10084000D9FF78610AE03B69274AA2FB0323DB0852
:10085000F97A7A68F868FFF7CDFF78617B69FA6802
:100860001344FB6025E03B68002B11DA7B68013BF9
:100870007B600DE0FB7A1946F868FFF73FFFFB68E5
:100880000133FB607B6901337B617B68013B7B60EB
:100890007B68002BEEDC3B68002B0ADA2D21F86820
:1008A000FFF72CFF02467B6913447B61FB68013331
:1008B000FB6039690C4BA3FB0123DA0813469B004C
:1008C00013445B00CA1AD3B23033DBB21946F8685E
:1008D000FFF714FF02467B6913447B617B6918466E
:1008E0001837BD4680BD00BFCDCCCCCC80B588B01C
:1008F00002AFF8607A601A460B46FB721346BB7271
:1009000000237B617B68013B7B603B6A1B09002BFA
:1009100020D03B6A1B09BA7AF97A009313467A68A9
:10092000F868FFF7E3FF02467B6913447B617B694C
:10093000FA681344FB6010E0FB7A1946F868FFF789
:10094000DDFEFB680133FB607B6901337B617B6803
:10095000013B7B607B68002BEEDC3B6A03F00F03FE
:10096000092B0BD83B6ADBB203F00F03DBB2303349
:10097000DBB21946F868FFF7C1FE19E0BB7A002B1D
:100980000BD03B6ADBB203F00F03DBB23733DBB2D1
:100990001946F868FFF7B2FE0AE03B6ADBB203F0E3
:1009A0000F03DBB25733DBB21946F868FFF7A6FE38
:1009B0007B6901337B617B6918461837BD4680BD72
:1009C00080B58AB002AFF860B9607A603B600023FE
:1009D000BB6100237B61FB68002B00F0FC80FB689F
:1009E00000221A70F7E07B681B78252B0BD0FB6880
:1009F0005A1CFA607A68511C796012781A707B6907
:100A000001337B61E7E07B6801331B78252B0BD139
:100A1000FB685A1CFA6025221A707B6802337B60DF
:100A20007B6901337B61D6E02023FB770023BB7712
:100A30007B6801337B607B681B78302B14D13023BB
:100A4000FB777B6801337B600EE0BB7F1A46920028
:100A500013445B00DAB27B681B781344DBB2303B93
:100A6000BB777B6801337B607B681B782F2B03D9B6
:100A70007B681B78392BE8D9BA7F7B6913441A4607
:100A8000BB689A4205D9BB68DAB27B69DBB2D31A7C
:100A9000BB777B681B78583B202B00F28E8001A22D
:100AA00052F823F0750B0008BB0B0008BB0B0008C5
:100AB000BB0B0008BB0B0008BB0B0008BB0B0008FE
:100AC000BB0B0008BB0B0008BB0B0008BB0B0008EE
:100AD000A50B0008290B0008BB0B0008BB0B000886
:100AE000BB0B0008BB0B0008290B0008BB0B000860
:100AF000BB0B0008BB0B0008BB0B0008BB0B0008BE
:100B0000BB0B0008BB0B0008BB0B0008BB0B0008AD
:100B1000910B0008BB0B0008410B0008BB0B000841
:100B2000BB0B0008590B0008B87F3B681A1D3A60E0
:100B30001B68F97F0246F868FFF75CFEB8613FE08A
:100B4000B87F3B681A1D3A601B68F97F0246F86857
:100B5000FFF702FEB86133E0B87F3B681A1D3A60C8
:100B60001B68F97F009300230246F868FFF7BEFE7A
:100B7000B86125E0B87F3B681A1D3A601B68F97FB1
:100B8000009301230246F868FFF7B0FEB86117E052
:100B90003B681A1D3A601B681946F868FFF7BEFDEE
:100BA000B8610DE03B681A1D3A601B68DBB219465C
:100BB000F868FFF7A3FDB86102E04FF0FF3325E0CE
:100BC0007B6801337B60BB69FA681344FB607A6918
:100BD000BB6913447B617B681B78002B04D07A6966
:100BE000BB689A42FFF4FFAE7A69BB689A4203D2AF
:100BF000FB6800221A7008E0FB68013BFB60FB68A1
:100C000000221A707B69013B7B617B6918462037A3
:100C1000BD4680BD80B584B000AFF860B9607A6031
:100C20007B68BA686421F868FFF7CAFE0346184675
:100C30001037BD4680BD00BF0EB480B585B000AF93
:100C4000786007F12003BB60BA68F9697868FFF73C
:100C5000E1FFF860FB6818461437BD46BDE88040E8
:100C600003B0704780B487B000AF786000237B6129
:100C700000233B610023FB600023BB604C4B5B689F
:100C800003F00C037B617B69042B07D0082B09D090
:100C9000002B33D17B68474A1A6033E07B68454AB2
:100CA0001A602FE0424B5B6803F470133B61404BCA
:100CB0005B6803F48033FB603B699B0C02333B6150
:100CC000FB68002B06D13B693B4A02FB03F27B68C1
:100CD0001A6017E0364B5B6803F40033002B06D034
:100CE0003B69354A02FB03F27B681A600AE03B6904
:100CF000304A02FB03F27B681A6003E07B682D4AEE
:100D00001A6000BF2A4B5B6803F0F0037B617B69CC
:100D10001B097B61294A7B6913441B78DBB2BB60EA
:100D20007B681A68BB68DA407B685A60204B5B6856
:100D300003F4E0637B617B691B0A7B611F4A7B696B
:100D400013441B78DBB2BB607B685A68BB68DA402F
:100D50007B689A60164B5B6803F460537B617B6928
:100D6000DB0A7B61154A7B6913441B78DBB2BB60ED
:100D70007B685A68BB68DA407B68DA600C4B5B685A
:100D800003F440437B617B699B0B7B610C4A7B696D
:100D900013441B78DBB2BB607B68DA68BB68B2FBCC
:100DA000F3F27B681A6100BF1C37BD4680BC7047F8
:100DB0000010024000127A0000093D0000000020EF
:100DC0001000002080B483B000AF78600B46FB7049
:100DD000FB78002B06D00949084B9A697B681343BE
:100DE0008B6106E00549054B9A697B68DB4313403C
:100DF0008B6100BF0C37BD4680BC704700100240BD
:100E000080B483B000AF78600B46FB70FB78002B9A
:100E100006D00949084BDA697B681343CB6106E0C9
:100E20000549054BDA697B68DB431340CB6100BFA2
:100E30000C37BD4680BC70470010024080B58CB0B6
:100E400000AF786039600023FB620023BB6200239F
:100E50007B6200233B620023FB617B68FB617B6854
:100E60001B8A9BB2FB62FA6A4CF6FF731340FB626B
:100E70003B68DB881A46FB6A1343FB62FB6A9AB243
:100E80007B681A827B689B899BB2FB62FA6A4EF68A
:100E9000F3131340FB623B689A883B681B8913433A
:100EA0009AB23B685B8913439BB21A46FB6A1343B1
:100EB000FB62FB6A9AB27B689A817B689B8A9BB2D1
:100EC000FB62FA6A4FF6FF431340FB623B689B8963
:100ED0001A46FB6A1343FB62FB6A9AB27B689A82EA
:100EE00007F108031846FFF7BDFEFB692E4A93423F
:100EF00002D17B69BB6201E03B69BB627B689B8975
:100F00009BB21BB2002B0CDABA6A13469B00134447
:100F10009A001A443B681B685B00B2FBF3F37B62E8
:100F20000BE0BA6A13469B0013449A001A443B68CC
:100F30001B689B00B2FBF3F37B627B6A1B4AA2FB3C
:100F400003235B091B01FB62FB6A1B09642202FB92
:100F500003F37A6AD31A3B627B689B899BB21BB20C
:100F6000002B0CDA3B6ADB003233104AA2FB03236E
:100F70005B0903F00703FA6A1343FB620BE03B6A69
:100F80001B013233094AA2FB03235B0903F00F0361
:100F9000FA6A1343FB62FB6A9AB27B681A8100BF4C
:100FA0003037BD4680BD00BF003801401F85EB5182
:100FB00080B483B000AF78600B46FB70FB78002BE9
:100FC00008D07B689B899BB243F400539AB27B683C
:100FD0009A8107E07B689B899BB223F400539AB205
:100FE0007B689A8100BF0C37BD4680BC704700BF4C
:100FF00080B487B000AF78600B467B8013467B706F
:1010000000233B610023FB600023BB6000237B6166
:101010007B687B617B88DBB25B09DBB23B617B88F1
:1010200003F01F03FB600122FB6802FA03F3BB60BD
:101030003B69012B03D17B690C337B6109E03B6980
:10104000022B03D17B6910337B6102E07B6914338F
:101050007B617B78002B06D07B697A691168BA685E
:101060000A431A6006E07B697A691168BA68D2435C
:101070000A401A6000BF1C37BD4680BC704700BFE5
:1010800080B483B000AF78600B467B807B88C3F36D
:1010900008039AB27B689A8000BF0C37BD4680BCBB
:1010A000704700BF80B483B000AF78607B689B88D6
:1010B0009BB2C3F308039BB218460C37BD4680BCF5
:1010C000704700BF80B485B000AF78600B467B806E
:1010D0000023FB737B681B889AB27B8813409BB20A
:1010E000002B02D00123FB7301E00023FB73FB7B89
:1010F00018461437BD4680BC704700BF80B487B027
:1011000000AF786000237B6100233B610F23FB600D
:101110007B68DB78002B3AD0274BDB68DB4303F49A
:10112000E0631B0A7B617B69C3F104033B61FA68DE
:101130007B6922FA03F3FB607B685B781A463B69A4
:1011400002FA03F37B617B689B781A46FB681340C5
:101150007A6913437B617B691B017B61174A7B685A
:101160001B787969C9B213440A4683F80023134AED
:101170007B681B785B09DBB218467B681B7803F041
:101180001F03012101FA03F342F820300FE00B495D
:101190007B681B785B09DBB218467B681B7803F021
:1011A0001F0301229A4000F1200341F8232000BFD1
:1011B0001C37BD4680BC704700ED00E000E100E058
:1011C00080EA0102844612F0030F4FD111F0030FA1
:1011D00032D14DF8044D11F0040F51F8043B0BD0FF
:1011E000A3F101329A4312F0803F04BF4CF8043B54
:1011F00051F8043B16D100BF51F8044BA3F1013262
:101200009A4312F0803FA4F101320BD14CF8043B19
:10121000A24312F0803F04BF51F8043B4CF8044B4A
:10122000EAD023460CF8013B13F0FF0F4FEA3323BB
:10123000F8D15DF8044B704711F0010F06D011F89A
:10124000012B0CF8012B002A08BF704711F0020F88
:10125000BFD031F8022B12F0FF0F16BF2CF8022B73
:101260008CF8002012F47F4FB3D1704711F8012B96
:101270000CF8012B002AF9D1704700BF3A25640011
:10128000202000002057656C636F6D652C2049207D
:0E1290006D2073746D333266313033210A00E5
:10129E00000000000102030401020304060708090E
:0412AE000204060828
:0400000508000000EF
:00000001FF
