:020000040800F2
:100000001804002081020008E1020008E102000853
:10001000E1020008E1020008E1020008000000001F
:10002000000000000000000000000000E1020008E5
:10003000E102000800000000E1020008E1020008FF
:10004000E1020008E1020008E1020008E102000804
:10005000E1020008E1020008E1020008E1020008F4
:10006000E1020008E1020008E1020008E1020008E4
:10007000E1020008E1020008E1020008E1020008D4
:10008000E1020008E1020008E1020008E1020008C4
:10009000E1020008E1020008E1020008E1020008B4
:1000A000E1020008E1020008E1020008E1020008A4
:1000B000E1020008E1020008E1020008E102000894
:1000C000E1020008E1020008E1020008E102000884
:1000D000E1020008E1020008E1020008E102000874
:1000E000E1020008E1020008E1020008000000004F
:1000F0000000000000000000000000000000000000
:1001000000000000000000005FF808F180B500AFBB
:10011000154A154B1B6843F0010313601249124B3B
:100120005A68124B13404B600F4A0F4B1B6823F069
:10013000847323F4803313600B4A0B4B1B6823F446
:1001400080231360084A084B5B6823F4FE03536066
:10015000054B4FF41F029A6000F00CF8044B4FF06F
:1001600000629A6000BF80BD001002400000FFF8EE
:1001700000ED00E080B500AF00F002F800BF80BDE8
:1001800080B483B000AF00237B6000233B603A4A19
:10019000394B1B6843F480331360374B1B6803F4FF
:1001A00000333B607B6801337B603B68002B03D1ED
:1001B0007B68B3F5A06FF0D12F4B1B6803F40033BD
:1001C000002B02D001233B6001E000233B603B6831
:1001D000012B4BD1294A294B1B6843F010031360B4
:1001E000264A264B1B6823F003031360234A234B44
:1001F0001B6843F0020313601F4A1F4B5B68536088
:100200001D4A1D4B5B6853601B4A1B4B5B6843F4E4
:1002100080635360184A184B5B6823F47C13536067
:10022000154A154B5B6843F4E8135360124A124BAE
:100230001B6843F08073136000BF0F4B1B6803F013
:100240000073002BF9D00C4A0B4B5B6823F00303BF
:100250005360094A084B5B6843F00203536000BFD8
:10026000054B5B6803F00C03082BF9D100BF0C377A
:10027000BD4680BC704700BF001002400020024015
:1002800080B582B000AF114B7B60114B3B6007E043
:100290003B681A1D3A607A68111D796012681A600D
:1002A0003B680C4A9342F3D30B480C494FF00002D1
:1002B0008842B8BF40F8042BFADBFFF727FF00F0B5
:1002C000CFF800BF0837BD4680BD00BFF717000854
:1002D0000000002014000020140000201400002062
:1002E00080B400AFFEE700BF80B489B000AF786093
:1002F00039600023FB6100233B610023BB610023C5
:10030000FB6000237B610023BB603B68DB7803F06C
:100310000F03FB613B68DB7803F01003002B05D073
:100320003B689B781A46FB691343FB613B681B885B
:10033000DBB2002B44D07B681B687B610023BB6170
:1003400038E00122BB6902FA03F3FB603B681B88BB
:100350001A46FB6813403B613A69FB689A4226D112
:10036000BB699B00FB600F22FB6802FA03F3BB60D2
:10037000BB68DB437A6913407B61FA69FB6802FA68
:1003800003F37A6913437B613B68DB78282B05D143
:100390000122BB699A407B685A6108E03B68DB78C0
:1003A000482B04D10122BB699A407B681A61BB6962
:1003B0000133BB61BB69072BC3D97B687A691A60BB
:1003C0003B681B88FF2B46D97B685B687B610023F9
:1003D000BB613AE0BB690833012202FA03F3FB6018
:1003E0003B681B881A46FB6813403B613A69FB680F
:1003F0009A4227D1BB699B00FB600F22FB6802FA7F
:1004000003F3BB60BB68DB437A6913407B61FA6925
:10041000FB6802FA03F37A6913437B613B68DB787C
:10042000282B05D1BB69083301229A407B685A61A9
:100430003B68DB78482B05D1BB69083301229A4021
:100440007B681A61BB690133BB61BB69072BC1D9EA
:100450007B687A695A6000BF2437BD4680BC70470C
:1004600080B594B000AF4FF4E13000F04DF800F0EB
:10047000BFFE00F085FD07F14403184600F0D6FDED
:1004800007F144023B1D1146184600F00BF83B1DD6
:10049000184600F081F8024800F09EF8EBE700BF34
:1004A00000093D00B0B586B004AF786039603B68A4
:1004B000B3F900301C463B680233B3F900301D46E7
:1004C0003B680433B3F900301A463B680633B3F98E
:1004D000003019463B680833B3F9003018463B68D2
:1004E0000A33B3F9003003930290019100922B4636
:1004F00022460449786800F01DFB00BF0837BD465E
:10050000B0BD00BFE417000880B588B000AF7860C8
:100510000121042000F0D4FB01214FF4804000F0C1
:10052000CFFB4FF40073BB830323BB771823FB7708
:1005300007F11C0319461648FFF7D6FE4FF48063F7
:10054000BB830423FB7707F11C0319461048FFF710
:10055000CBFE07F10C03184600F0A8FC7B68FB609B
:1005600000233B8200237B820023BB8200233B834A
:100570000C23FB8207F10C031946064800F0DCFB54
:100580000121044800F0AEFC00BF2037BD4680BD0D
:10059000000801400038014080B582B000AF7860AB
:1005A00010E07B685A1C7A601B789BB21946094898
:1005B00000F0B8FC00BF4021064800F0C5FC03462F
:1005C000002BF8D07B681B78002BEAD100BF0837DE
:1005D000BD4680BD0038014080B483B000AF786074
:1005E00000BF7B685A1E7A60002BFAD100BF0C371F
:1005F000BD4680BC704700BF80B483B000AF786058
:100600000B46FB707B68FA781A70012318460C378A
:10061000BD4680BC704700BF80B485B000AF786035
:1006200039600023FB600AE07B685A1C7A603A68F4
:10063000511C396012781A70FB680133FB603B680B
:100640001B78002BF0D1FB6818461437BD4680BCE0
:10065000704700BF80B586B000AFF8607A603B603D
:100660000B46FB7200237B617B68013B7B603B6830
:10067000092B1DD93B681D4AA2FB0323DB08F97A2D
:100680007A68F868FFF7E6FF78617B69FA681344D7
:10069000FB6010E0FB7A1946F868FFF7ADFFFB68D6
:1006A0000133FB607B6901337B617B68013B7B60CD
:1006B0007B68002BEEDC39680C4BA3FB0123DA08C6
:1006C00013469B0013445B00CA1AD3B23033DBB22B
:1006D0001946F868FFF790FF02467B6913447B6177
:1006E0007B6918461837BD4680BD00BFCDCCCCCC49
:1006F00080B586B000AFF8607A603B600B46FB7255
:1007000000237B613B68002B03DA3B685B423B6163
:1007100001E03B683B617B68013B7B603B69092BE7
:100720001FD93B68002B0CDA3B692E4AA2FB03233E
:10073000DB085B42F97A7A68F868FFF7D9FF7861DD
:100740000AE03B69274AA2FB0323DB08F97A7A68AF
:10075000F868FFF7CDFF78617B69FA681344FB60A6
:1007600025E03B68002B11DA7B68013B7B600DE0E4
:10077000FB7A1946F868FFF73FFFFB680133FB601F
:100780007B6901337B617B68013B7B607B68002B6D
:10079000EEDC3B68002B0ADA2D21F868FFF72CFF0E
:1007A00002467B6913447B61FB680133FB60396956
:1007B0000C4BA3FB0123DA0813469B0013445B0098
:1007C000CA1AD3B23033DBB21946F868FFF714FF08
:1007D00002467B6913447B617B6918461837BD4626
:1007E00080BD00BFCDCCCCCC80B588B002AFF86066
:1007F0007A601A460B46FB721346BB7200237B617C
:100800007B68013B7B603B6A1B09002B20D03B6A65
:100810001B09BA7AF97A009313467A68F868FFF7E9
:10082000E3FF02467B6913447B617B69FA681344EA
:10083000FB6010E0FB7A1946F868FFF7DDFEFB6805
:100840000133FB607B6901337B617B68013B7B602B
:100850007B68002BEEDC3B6A03F00F03092B0BD8FF
:100860003B6ADBB203F00F03DBB23033DBB2194675
:10087000F868FFF7C1FE19E0BB7A002B0BD03B6A8A
:10088000DBB203F00F03DBB23733DBB21946F86893
:10089000FFF7B2FE0AE03B6ADBB203F00F03DBB204
:1008A0005733DBB21946F868FFF7A6FE7B690133C0
:1008B0007B617B6918461837BD4680BD80B58AB01C
:1008C00002AFF860B9607A603B600023BB6100232F
:1008D0007B61FB68002B00F0FC80FB6800221A7033
:1008E000F7E07B681B78252B0BD0FB685A1CFA605D
:1008F0007A68511C796012781A707B6901337B61C8
:10090000E7E07B6801331B78252B0BD1FB685A1C71
:10091000FA6025221A707B6802337B607B690133A1
:100920007B61D6E02023FB770023BB777B68013314
:100930007B607B681B78302B14D13023FB777B687E
:1009400001337B600EE0BB7F1A46920013445B00CC
:10095000DAB27B681B781344DBB2303BBB777B6831
:1009600001337B607B681B782F2B03D97B681B7856
:10097000392BE8D9BA7F7B6913441A46BB689A427F
:1009800005D9BB68DAB27B69DBB2D31ABB777B6867
:100990001B78583B202B00F28E8001A252F823F0E6
:1009A000710A0008B70A0008B70A0008B70A000869
:1009B000B70A0008B70A0008B70A0008B70A000813
:1009C000B70A0008B70A0008B70A0008A10A000819
:1009D000250A0008B70A0008B70A0008B70A000885
:1009E000B70A0008250A0008B70A0008B70A000875
:1009F000B70A0008B70A0008B70A0008B70A0008D3
:100A0000B70A0008B70A0008B70A00088D0A0008EC
:100A1000B70A00083D0A0008B70A0008B70A00082C
:100A2000550A0008B87F3B681A1D3A601B68F97FB9
:100A30000246F868FFF75CFEB8613FE0B87F3B68AC
:100A40001A1D3A601B68F97F0246F868FFF702FE3C
:100A5000B86133E0B87F3B681A1D3A601B68F97FC4
:100A6000009300230246F868FFF7BEFEB86125E058
:100A7000B87F3B681A1D3A601B68F97F0093012319
:100A80000246F868FFF7B0FEB86117E03B681A1D30
:100A90003A601B681946F868FFF7BEFDB8610DE0C3
:100AA0003B681A1D3A601B68DBB21946F868FFF70D
:100AB000A3FDB86102E04FF0FF3325E07B6801330E
:100AC0007B60BB69FA681344FB607A69BB691344B5
:100AD0007B617B681B78002B04D07A69BB689A42E3
:100AE000FFF4FFAE7A69BB689A4203D2FB6800222A
:100AF0001A7008E0FB68013BFB60FB6800221A707B
:100B00007B69013B7B617B6918462037BD4680BD10
:100B100080B584B000AFF860B9607A607B68BA686D
:100B20006421F868FFF7CAFE034618461037BD4631
:100B300080BD00BF0EB480B585B000AF786007F10E
:100B40002003BB60BA68F9697868FFF7E1FFF860D5
:100B5000FB6818461437BD46BDE8804003B07047B7
:100B600080B487B000AF786000237B6100233B61D5
:100B70000023FB600023BB604C4B5B6803F00C035D
:100B80007B617B69042B07D0082B09D0002B33D164
:100B90007B68474A1A6033E07B68454A1A602FE059
:100BA000424B5B6803F470133B61404B5B6803F49A
:100BB0008033FB603B699B0C02333B61FB68002B7D
:100BC00006D13B693B4A02FB03F27B681A6017E0DF
:100BD000364B5B6803F40033002B06D03B69354A83
:100BE00002FB03F27B681A600AE03B69304A02FBB1
:100BF00003F27B681A6003E07B682D4A1A6000BF2D
:100C00002A4B5B6803F0F0037B617B691B097B6106
:100C1000294A7B6913441B78DBB2BB607B681A6886
:100C2000BB68DA407B685A60204B5B6803F4E06382
:100C30007B617B691B0A7B611F4A7B6913441B78BC
:100C4000DBB2BB607B685A68BB68DA407B689A603D
:100C5000164B5B6803F460537B617B69DB0A7B6145
:100C6000154A7B6913441B78DBB2BB607B685A680A
:100C7000BB68DA407B68DA600C4B5B6803F4404386
:100C80007B617B699B0B7B610C4A7B6913441B78FE
:100C9000DBB2BB607B68DA68BB68B2FBF3F27B68EF
:100CA0001A6100BF1C37BD4680BC7047001002406F
:100CB00000127A0000093D00000000201000002012
:100CC00080B483B000AF78600B46FB70FB78002BDC
:100CD00006D00949084B9A697B6813438B6106E08B
:100CE0000549054B9A697B68DB4313408B6100BF64
:100CF0000C37BD4680BC70470010024080B483B002
:100D000000AF78600B46FB70FB78002B06D00949DA
:100D1000084BDA697B681343CB6106E00549054B54
:100D2000DA697B68DB431340CB6100BF0C37BD46FB
:100D300080BC70470010024080B58CB000AF786076
:100D400039600023FB620023BB6200237B62002327
:100D50003B620023FB617B68FB617B681B8A9BB263
:100D6000FB62FA6A4CF6FF731340FB623B68DB8858
:100D70001A46FB6A1343FB62FB6A9AB27B681A82CB
:100D80007B689B899BB2FB62FA6A4EF6F3131340B1
:100D9000FB623B689A883B681B8913439AB23B68A5
:100DA0005B8913439BB21A46FB6A1343FB62FB6ADF
:100DB0009AB27B689A817B689B8A9BB2FB62FA6AD3
:100DC0004FF6FF431340FB623B689B891A46FB6A60
:100DD0001343FB62FB6A9AB27B689A8207F10803AD
:100DE0001846FFF7BDFEFB692E4A934202D17B698C
:100DF000BB6201E03B69BB627B689B899BB21BB213
:100E0000002B0CDABA6A13469B0013449A001A446A
:100E10003B681B685B00B2FBF3F37B620BE0BA6AD2
:100E200013469B0013449A001A443B681B689B00BE
:100E3000B2FBF3F37B627B6A1B4AA2FB03235B09D1
:100E40001B01FB62FB6A1B09642202FB03F37A6A43
:100E5000D31A3B627B689B899BB21BB2002B0CDAD6
:100E60003B6ADB003233104AA2FB03235B0903F029
:100E70000703FA6A1343FB620BE03B6A1B01323340
:100E8000094AA2FB03235B0903F00F03FA6A134329
:100E9000FB62FB6A9AB27B681A8100BF3037BD469D
:100EA00080BD00BF003801401F85EB5180B483B086
:100EB00000AF78607B684FF416521A607B6800229E
:100EC0009A807B680022DA807B6800221A817B6826
:100ED0000C225A817B6800229A8100BF0C37BD46E4
:100EE00080BC704780B483B000AF78600B46FB7065
:100EF000FB78002B08D07B689B899BB243F400539E
:100F00009AB27B689A8107E07B689B899BB223F445
:100F100000539AB27B689A8100BF0C37BD4680BCF3
:100F2000704700BF80B483B000AF78600B467B8011
:100F30007B88C3F308039AB27B689A8000BF0C37A2
:100F4000BD4680BC704700BF80B485B000AF7860FC
:100F50000B467B800023FB737B681B889AB27B88DF
:100F600013409BB2002B02D00123FB7301E000234E
:100F7000FB73FB7B18461437BD4680BC704700BF2F
:100F800080B500AF012000F00BF8002000F01AF847
:100F9000002000F029F8002000F038F800BF80BDE4
:100FA00080B584B002AF0346FB71FB790093032345
:100FB00002226B21D02000F091F800BF0837BD4617
:100FC00080BD00BF80B584B002AF0346FB71FB79E2
:100FD0000093022304221B21D02000F07FF800BFE1
:100FE0000837BD4680BD00BF80B584B002AF034660
:100FF000FB71FB790093022304221C21D02000F016
:101000006DF800BF0837BD4680BD00BF80B582B017
:1010100000AF0346FB71FB7906226B21D02000F064
:10102000ABF800BF0837BD4680BD00BF80B588B0B3
:1010300000AF786007F108010E233B22D02000F0BA
:101040005FF90023FB611CE0FB695B007A681344D5
:10105000FA69520007F120010A4412F8182C120212
:1010600091B2FA695200013207F12000024412F8ED
:10107000182C92B20A4492B212B21A80FB69013360
:10108000FB61FB69022BDFDD0423BB611FE0BB6951
:1010900003F10043013B5B007A681344BA695200D4
:1010A00007F120010A4412F8182C120291B2BA6911
:1010B0005200013207F12000024412F8182C92B2BB
:1010C0000A4492B212B21A80BB690133BB61BB6998
:1010D000062BDCDD00BF2037BD4680BD90B585B056
:1010E00000AF0446084611461A462346FB710346E4
:1010F000BB710B467B7113463B71BA7907F10E0148
:10110000F879012300F0FCF83B79012202FA03F39D
:101110005A1E79793B79CB1A013302FA03F3FB7338
:1011200097F8202079793B79CB1A013302FA03F33F
:1011300087F8203097F82020FB7B134087F8203079
:1011400097F90F30DB435AB2BB7B5BB213405BB203
:10115000DBB2BB73BA7B97F820301343DBB2BB73AF
:10116000BA7907F10E01FB79184600F07BF800BF51
:101170001437BD4690BD00BF90B585B000AF0446A2
:10118000084611461A462346FB710346BB710B46BF
:101190007B7113463B71BA7907F10F01F87901238E
:1011A00000F0AEF83B79002B0AD07B79012202FADD
:1011B00003F35AB2FB7B5BB213435BB2DBB20BE0CF
:1011C0007B79012202FA03F35BB2DB435AB2FB7B69
:1011D0005BB213405BB2DBB2FB73BA7907F10F016C
:1011E000FB79184600F03EF800BF1437BD4690BDAD
:1011F00080B586B000AF01214FF40010FFF77EFDEF
:1012000001210820FFF75CFDC023BB800323BB71D5
:101210001C23FB713B1D19460F48FFF765F800239F
:10122000BB814BF6FF73FB81D0233B824FF480637D
:101230007B824FF48043BB82084BBB6007F10803FD
:101240001946074800F0EEF80121054800F0ACF916
:1012500000BF1837BD4680BD000C0140A0860100CC
:101260000054004080B582B000AF03463960FB7186
:101270001346BB7101211E4800F0B6F900BF1D499D
:101280001B4800F04DFA0346002BF8D0FB790022F2
:101290001946174800F026FA00BF1749144800F015
:1012A0003FFA0346002BF8D0BB791946104800F0EE
:1012B000FBF900BF11490E4800F032FA0346002B3B
:1012C000F8D03B681B781946094800F0EDF900BFDB
:1012D0000A49074800F024FA0346002BF8D0012100
:1012E000034800F0A1F900BF0837BD4680BD00BF2C
:1012F0000054004001000300820007008400070042
:1013000080B582B000AF396011461A460346FB71C2
:101310000B46BB711346BB8000BF4FF400313B4806
:1013200000F02EFA0346002BF7D10121374800F0D8
:101330005BF900BF3649354800F0F2F90346002B4F
:10134000F8D0FB7900221946304800F0CBF900BFF5
:1013500030492E4800F0E4F90346002BF8D0012173
:101360002A4800F021F9BB791946284800F09CF979
:1013700000BF2949254800F0D3F90346002BF8D0D7
:101380000121224800F030F900BF21491F4800F038
:10139000C7F90346002BF8D0FB79012219461B48F8
:1013A00000F0A0F900BF1D49184800F0B9F9034644
:1013B000002BF8D01EE0BB88012B07D10021134879
:1013C00000F052F90121114800F02EF914490F489C
:1013D00000F0A6F90346002B0CD00C4800F074F97D
:1013E00003461A463B681A703B6801333B60BB8872
:1013F000013BBB80BB88002BDDD10121034800F0FD
:1014000033F900BF0837BD4680BD00BF005400401F
:1014100001000300820007008400070002000300AF
:101420004000030080B58AB000AF786039600023C7
:10143000FB8400237B840423BB84574BFB617B68C4
:101440009B88FB84FB8C23F03F03FB8407F108039C
:101450001846FFF785FB3B69FB61FB694F4AA2FB1E
:1014600003239B0C7B84FA8C7B8C1343FB847B686B
:10147000FA8C9A807B681B889BB223F001039AB296
:101480007B681A800023FB843B681B68444A9342B4
:1014900015D83B681B685B00FA69B2FBF3F3BB84A9
:1014A000BB8C032B01D80423BB84FA8CBB8C134365
:1014B000FB847B8C01339AB27B681A8440E03B68E2
:1014C000DB884BF6FF72934209D13B681A681346DA
:1014D0005B001344FA69B2FBF3F3BB840EE03B6894
:1014E0001A6813469B0013449A001344FA69B2FB2E
:1014F000F3F3BB84BB8C43F48043BB84BB8CC3F34A
:101500000B03002B03D1BB8C43F00103BB84BA8CCB
:10151000FB8C13439BB26FEA43436FEA5343FB8454
:101520007B8C4FF4967202FB03F31E4A82FB03127C
:101530009211DB17D31A9BB201339AB27B681A84DB
:101540007B68FA8C9A837B681B889BB243F001030B
:101550009AB27B681A807B681B88FB84FB8C23F41F
:10156000816323F00203FB843B689A883B685B89B4
:1015700013439AB2FB8C1343FB847B68FA8C1A806A
:101580003B689A893B681B8913439AB27B681A812E
:1015900000BF2837BD4680BD00127A0083DE1B43A2
:1015A000A0860100D34D621080B483B000AF786094
:1015B0000B46FB70FB78002B08D07B681B889BB226
:1015C00043F001039AB27B681A8007E07B681B88AE
:1015D0009BB223F001039AB27B681A8000BF0C37DC
:1015E000BD4680BC704700BF80B483B000AF786058
:1015F0000B46FB70FB78002B08D07B681B889BB2E6
:1016000043F480739AB27B681A8007E07B681B887A
:101610009BB223F480739AB27B681A8000BF0C37A8
:10162000BD4680BC704700BF80B483B000AF786017
:101630000B46FB70FB78002B08D07B681B889BB2A5
:1016400043F400739AB27B681A8007E07B681B88BA
:101650009BB223F400739AB27B681A8000BF0C37E8
:10166000BD4680BC704700BF80B483B000AF7860D7
:101670000B46FB70FB78002B08D07B681B889BB265
:1016800043F480639AB27B681A8007E07B681B880A
:101690009BB223F480639AB27B681A8000BF0C3738
:1016A000BD4680BC704700BF80B483B000AF786097
:1016B0000B46FB70FB789AB27B681A8200BF0C372E
:1016C000BD4680BC704700BF80B483B000AF786077
:1016D0007B681B8A9BB2DBB218460C37BD4680BCC8
:1016E000704700BF80B483B000AF78600B46FB70DA
:1016F0001346BB70BB78002B04D0FB7843F001038A
:10170000FB7003E0FB7823F00103FB70FB789AB2D7
:101710007B681A8200BF0C37BD4680BC704700BF93
:1017200080B487B000AF7860396000233B6100234C
:10173000FB600023BB600023FB757B689B8A9BB228
:10174000FB607B681B8B9BB2BB60BB681B04BB60F0
:10175000FA68BB68134323F07F433B613A693B68F7
:101760001A403B689A4202D10123FB7501E0002335
:10177000FB75FB7D18461C37BD4680BC704700BF1B
:1017800080B487B000AF786039600023FB75002318
:101790003B610023FB607B68FB603B681B0F3B6188
:1017A0003B6823F07F433B603B69002B03D0FB6821
:1017B0001433FB6005E03B681B0C3B60FB6818338F
:1017C000FB60FB681A683B681340002B02D00123C2
:1017D000FB7501E00023FB75FB7D18461C37BD46F9
:1017E00080BC704725642C25642C25642C25642C32
:0717F00025642C25640A00AA
:1017F70000000000010203040102030406070809B0
:0418070002040608C9
:0400000508000000EF
:00000001FF
