:1000000012C02CC02BC02AC029C028C027C026C0BF
:1000100025C024C023C022C021C020C01FC01EC0D4
:100020001DC01CC01BC011241FBECFE5D4E0DEBF25
:10003000CDBF10E0A0E6B0E0E4E4F8E002C0059037
:100040000D92A637B107D9F710E0A6E7B0E001C0DE
:100050001D92AB37B107E1F75FD2F2C3D1CF909ACF
:10006000000000000000909808951F93182F80E969
:1000700091E00197F1F79298919A18BA812F8295A1
:100080008F7088BBECDF18BA1F7018BBE8DF18BA96
:100090001F9108950F931F93CF93DF93EC0100E915
:1000A00011E005C02196E1DFC8010197F1F78881D1
:1000B0008823C1F7DF91CF911F910F9108951F936E
:1000C000182F80E991E00197F1F782B3897F82BB15
:1000D00018BA812F82958F7088BBC1DF18BA1F7044
:1000E00018BBBDDF18BA1F91089581E0E8DF80E9F1
:1000F00091E00197F1F708958058E3E7F0E0E60F0B
:10010000F11D9081890FDBDF80EA9FE00197F1F715
:1001100008950F931F9380E49FE10197F1F781B356
:10012000876081BB8FEF87BB88EC90E020E931E0EE
:10013000F9013197F1F70197D9F780E3C0DF80E348
:10014000BEDF80E2BCDF81E0BADF80E49FE101979F
:10015000F1F788E2B4DF08EC10E0C8010197F1F78D
:100160008CE0ADDFC8010197F1F7C8010197F1F705
:1001700080E8A5DF1F910F91089588E1A0DF80E955
:1001800091E00197F1F708958CE199DF80E991E022
:100190000197F1F708952F923F924F925F926F92DD
:1001A0007F928F929F92AF92BF92CF92DF92EF9207
:1001B000FF920F931F93CF93DF93C0E0D0E0482EC0
:1001C00055243B018824992480E9282E81E0382E8B
:1001D00039C0D3DFC401B301D7D15B016C0120E08A
:1001E00030E04AE755E45ED27B018C0120E030E04C
:1001F00040E85FE399D188231CF461E070E01EC001
:10020000C801B70120E03FEF4FE757E447D2181687
:1002100094F4C601B50120E030E040E251E442D25E
:1002200087D105C0C1010197F1F761507040611598
:100230007105C1F706C0C801B7017AD1CB0101979A
:10024000F1F72196C415D5050CF4C3CF80E991E0F0
:100250000197F1F7DF91CF911F910F91FF90EF90F0
:10026000DF90CF90BF90AF909F908F907F906F90D6
:100270005F904F903F902F9008952F923F924F9212
:100280005F926F927F928F929F92AF92BF92CF9226
:10029000DF92EF92FF920F931F93CF93DF93C0E013
:1002A000D0E0482E55243B018824992490E9292E3A
:1002B00091E0392E39C068DFC401B30165D15B011B
:1002C0006C0120E030E04AE755E4ECD17B018C0181
:1002D00020E030E040E85FE327D188231CF461E0B0
:1002E00070E01EC0C801B70120E03FEF4FE757E4C0
:1002F000D5D1181694F4C601B50120E030E040E2F3
:1003000051E4D0D115D105C0C1010197F1F7615079
:10031000704061157105C1F706C0C801B70108D169
:10032000CB010197F1F72196C415D5050CF4C3CF85
:1003300080E991E00197F1F7DF91CF911F910F9143
:10034000FF90EF90DF90CF90BF90AF909F908F90F5
:100350007F906F905F904F903F902F90089580E135
:10036000AEDE80E991E00197F1F7089584E1A7DE20
:1003700080E991E00197F1F70895882321F0813019
:1003800021F48CE001C088E09ADE80E991E00197D9
:10039000F1F70895813039F0813018F0823039F466
:1003A00004C08CE003C08EE001C08FE088DE80E9ED
:1003B00091E00197F1F70895839913C080ED97E0DC
:1003C00020E931E0F9013197F1F70197D9F78091F0
:1003D00078008F5F80937800893118F081E08093F6
:1003E00078000895849912C080ED97E020E931E00B
:1003F000F9013197F1F70197D9F7809179008F5F73
:10040000809379008D3310F0109279000895EF9267
:10041000FF920F931F93DF93CF93CDB7DEB7EDB667
:10042000FEB62DB73EB7261B31090FB6F8943EBF76
:100430000FBE2DBF0DB71EB70F5F1F4F90E0B80165
:100440004AE050E0BAD1C80125DE80E991E0019789
:10045000F1F70FB6F894FEBE0FBEEDBECF91DF915F
:100460001F910F91FF90EF90089588EE93E020E99F
:1004700031E0F9013197F1F70197D9F780917600D2
:1004800090917700019690937700809376000B9778
:100490004CF080917A008F5F80937A001092770001
:1004A0001092760080917A008C3338F010927A00A6
:1004B000809179008F5F80937900809179008C33EF
:1004C00038F0809178008F5F8093780010927900E7
:1004D00080917800893110F01092780006DE80EA71
:1004E0009FE00197F1F780E690E0D4DD84E061E0E1
:1004F00003DE8091780063E08ADF81E790E0CADD67
:100500008091790063E083DF81E790E0C3DD809133
:100510007A0063E07CDF0895FCDD82B3886182BBF2
:100520004BDF60DFA2DFFCCF6CD008F481E00895E0
:1005300094D088F09F5790F0B92F9927B751A0F029
:10054000D1F0660F771F881F991F1AF0BA95C9F767
:1005500012C0B13081F09BD0B1E0089598C0672FF0
:10056000782F8827B85F39F0B93FCCF38695779517
:100570006795B395D9F73EF4909580957095619500
:100580007F4F8F4F9F4F0895E89409C097FB3EF42B
:1005900090958095709561957F4F8F4F9F4F9923D0
:1005A000A9F0F92F96E9BB279395F695879577954E
:1005B0006795B795F111F8CFFAF4BB0F11F460FF0E
:1005C0001BC06F5F7F4F8F4F9F4F16C0882311F066
:1005D00096E911C0772321F09EE8872F762F05C07A
:1005E000662371F096E8862F70E060E02AF09A9515
:1005F000660F771F881FDAF7880F9695879597F90A
:100600000895990F0008550FAA0BE0E8FEEF1616A3
:100610001706E807F907C0F012161306E407F507F6
:1006200098F0621B730B840B950B39F40A2661F06A
:10063000232B242B252B21F408950A2609F4A1400D
:10064000A6958FEF811D811D089557FD9058440F89
:10065000551F59F05F3F71F04795880F97FB991F21
:1006600061F09F3F79F087950895121613061406DE
:10067000551FF2CF4695F1DF08C01616170618066B
:10068000991FF1CF86957105610508940895E89446
:10069000BB2766277727CB0197F90895B2DF08F4C7
:1006A0008FEF08950BD078C069D028F06ED018F085
:1006B000952309F05AC05FC01124EACFC6DFA0F32A
:1006C000959FD1F3950F50E0551F629FF001729FE7
:1006D000BB27F00DB11D639FAA27F00DB11DAA1F06
:1006E000649F6627B00DA11D661F829F2227B00D53
:1006F000A11D621F739FB00DA11D621F839FA00DDE
:10070000611D221F749F3327A00D611D231F849F2D
:10071000600D211D822F762F6A2F11249F57504084
:100720008AF0E1F088234AF0EE0FFF1FBB1F661F1F
:10073000771F881F91505040A9F79E3F510570F0D8
:1007400014C0A6CF5F3FECF3983EDCF38695779517
:100750006795B795F795E7959F5FC1F7FE2B880FD3
:10076000911D9695879597F9089597F99F6780E869
:1007700070E060E008959FEF80EC089500240A94F3
:100780001616170618060906089500240A9412166C
:100790001306140605060895092E0394000C11F49F
:1007A000882352F0BB0F40F4BF2B11F460FF04C04C
:1007B0006F5F7F4F8F4F9F4F0895FB019F01E8941C
:1007C0004230BCF04532ACF44A3029F497FB1EF4B9
:1007D000909581959F4F642F77271ED0805D8A3337
:1007E0000CF0895D8193CB010097A9F716F45DE2C7
:1007F00051931082C90100C0DC01FC01672F719187
:100800007723E1F7329704C07C916D9370836291F6
:10081000AE17BF07C8F30895AA1BBB1B51E107C061
:10082000AA1FBB1FA617B70710F0A61BB70B881F80
:10083000991F5A95A9F780959095BC01CD0108950F
:04084000F894FFCF5A
:10084400537761706E65656C277320436C6F636BBF
:06085400003A0000400024
:00000001FF
