:1000000012C019C018C017C016C015C014C013C044
:1000100012C011C010C00FC00EC00DC00CC00BC06C
:100020000AC009C008C011241FBECFE5D4E0DEBF5E
:10003000CDBF23D055C0E4CF019761F486E087BBE4
:100040008FB582688FBD8EB58B618EBD8FEF90E0CE
:1000500097BD86BD0895613611F0613429F401978A
:1000600059F45BBD4ABD0895623611F0623421F443
:10007000019711F459BD48BD08950F931F93CF9375
:10008000DF9381E090E0D8DFC0E0D0E000E911E04C
:100090000DC081E090E061E4AE01DDDF84EF91E02E
:1000A000F8013197F1F70197D9F7219681E0CD3228
:1000B000D8077CF3CCE2D1E081E090E061E4AE01CE
:1000C000CADF84EF91E0F8013197F1F70197D9F792
:1000D00021978FEFCF3FD80779F7C0E0D0E0E6CF88
:0400E000F894FFCFC2
:00000001FF
