:100000000C9434000C9449000C9449000C94490061
:100010000C9449000C9449000C9449000C9449003C
:100020000C9449000C9449000C9449000C9449002C
:100030000C9449000C9449000C9449000C9449001C
:100040000C9449000C9449000C9449000C9449000C
:100050000C9449000C9449000C9449000C944900FC
:100060000C9449000C94490011241FBECFEFD8E036
:10007000DEBFCDBF11E0A0E0B1E0E0ECF8E002C0EF
:1000800005900D92AE34B107D9F70E9472020C941C
:100090005E040C940000ECE7F0E0808180668083D1
:1000A000EAE7F0E0808187688083089510927C0001
:1000B00090917C00907F982B90937C0080917A00A7
:1000C000806480937A0080917A0086FDFCCF209135
:1000D000780030917900C9010895589A0000000015
:1000E0000000589808951F93182F81E28A95F1F720
:1000F0005A98599A15B8812F82958F7085B90E94A8
:100100006D0015B81F7015B90E946D0015B81F91CC
:1001100008951F93CF93DF93EC0111E206C021965F
:100120000E947300812F8A95F1F788818823B9F79F
:10013000DF91CF911F9108950E94730081E28A950B
:10014000F1F708951F93182F81E28A95F1F78BB18B
:10015000897F8BB915B8812F82958F7085B90E94E0
:100160006D0015B81F7015B90E946D0015B81F916C
:10017000089581E00E94A20081E28A95F1F7089536
:100180008158EBE4F1E0E60FF11D9081890F0E94A8
:10019000A2008AEF90E00197F1F708950F931F9363
:1001A00004EF11E0C8010197F1F78AB187608AB9BD
:1001B0008FEF84B988E893E10197F1F780E30E941B
:1001C000A20080E30E94A20080E20E94A20081E0DF
:1001D0000E94A200C8010197F1F788E20E94A200E4
:1001E00010E1812F8A95F1F78CE00E94A200812F07
:1001F0008A95F1F71A95F1F780E80E94A2001F9105
:100200000F91089588E10E94A20081E28A95F1F79A
:1002100008958CE10E94A20081E28A95F1F7089589
:100220002F923F924F925F926F927F928F929F9206
:10023000AF92BF92CF92DF92EF92FF920F931F93F4
:10024000CF93DF93C0E0D0E0482E55243B018824B3
:10025000992489E1282E312C41C00E940201C40159
:10026000B3010E9400035B016C0120E030E04AE72B
:1002700053E40E948E037B018C0120E030E040E8D3
:100280005FE30E94D00288231CF461E070E022C08A
:10029000C801B70120E03FEF4FE757E40E948A030F
:1002A0001816A4F4C601B50120E030E040E251E4A4
:1002B0000E948E030E94D40205C0C1010197F1F78C
:1002C0006150704061157105C1F707C0C801B701E1
:1002D0000E94D402CB010197F1F72196C415D505F0
:1002E0000CF4BBCF81E28A95F1F7DF91CF911F919A
:1002F0000F91FF90EF90DF90CF90BF90AF909F90C5
:100300008F907F906F905F904F903F902F900895C7
:100310002F923F924F925F926F927F928F929F9215
:10032000AF92BF92CF92DF92EF92FF920F931F9303
:10033000CF93DF93C0E0D0E0482E55243B018824C2
:10034000992499E1292E312C41C00E940901C40150
:10035000B3010E9400035B016C0120E030E04AE73A
:1003600053E40E948E037B018C0120E030E040E8E2
:100370005FE30E94D00288231CF461E070E022C099
:10038000C801B70120E03FEF4FE757E40E948A031E
:100390001816A4F4C601B50120E030E040E251E4B3
:1003A0000E948E030E94D40205C0C1010197F1F79B
:1003B0006150704061157105C1F707C0C801B701F0
:1003C0000E94D402CB010197F1F72196C415D505FF
:1003D0000CF4BBCF81E28A95F1F7DF91CF911F91A9
:1003E0000F91FF90EF90DF90CF90BF90AF909F90D4
:1003F0008F907F906F905F904F903F902F900895D7
:1004000080E10E94A20081E28A95F1F7089584E1DB
:100410000E94A20081E28A95F1F70895882321F0D5
:10042000813029F48CE001C088E00E94A20081E2C2
:100430008A95F1F70895813039F0813018F08230D3
:1004400041F404C08CE003C08EE001C08FE00E9444
:10045000A20081E28A95F1F708951F93182F81E099
:10046000612F0E94C00080E091E00E94890081E03D
:10047000612F0E94C0001F9108950E9456000895A8
:100480000E9456000895EF92FF920F931F93DF93FF
:10049000CF93CDB7DEB7EDB6FEB62DB73EB7261B70
:1004A00031090FB6F8943EBF0FBE2DBF0DB71EB772
:1004B0000F5F1F4F90E0B8014AE050E00E9419041E
:1004C000C8010E94890081E28A95F1F70FB6F8947D
:1004D000FEBE0FBEEDBECF91DF911F910F91FF9039
:1004E000EF9008950F931F93CF93DF9380917C003B
:1004F000806680937C0080917A00876880937A0080
:100500000E94CE0083E061E00E94C00081E191E0A2
:100510000E94890080E197E229E130E0F9013197FA
:10052000F1F70197D9F70E94B9008AE061E00E94D3
:10053000C0008CE191E00E9489008FE064EF71E0DF
:100540000E9410010E94B900C9E1D0E085E00E943C
:100550005600182F84E00E945600082F0E94B90010
:1005600081E061E00E94C00088E391E00E94890080
:10057000812F64E00E94430281E062E00E94C0009B
:1005800085E491E00E948900802F64E00E9443028C
:1005900080E197E2FE013197F1F70197D9F7D6CFC5
:1005A0006CD008F481E0089594D088F09F5790F0C3
:1005B000B92F9927B751A0F0D1F0660F771F881F88
:1005C000991F1AF0BA95C9F712C0B13081F09BD0CB
:1005D000B1E0089598C0672F782F8827B85F39F069
:1005E000B93FCCF3869577956795B395D9F73EF4E7
:1005F00090958095709561957F4F8F4F9F4F08958F
:10060000E89409C097FB3EF49095809570956195AC
:100610007F4F8F4F9F4F9923A9F0F92F96E9BB2762
:100620009395F695879577956795B795F111F8CFDE
:10063000FAF4BB0F11F460FF1BC06F5F7F4F8F4F49
:100640009F4F16C0882311F096E911C0772321F03F
:100650009EE8872F762F05C0662371F096E8862FD7
:1006600070E060E02AF09A95660F771F881FDAF72E
:10067000880F9695879597F90895990F0008550F5B
:10068000AA0BE0E8FEEF16161706E807F907C0F018
:1006900012161306E407F50798F0621B730B840B20
:1006A000950B39F40A2661F0232B242B252B21F4FA
:1006B00008950A2609F4A140A6958FEF811D811D9A
:1006C000089557FD9058440F551F59F05F3F71F042
:1006D0004795880F97FB991F61F09F3F79F08795A9
:1006E0000895121613061406551FF2CF4695F1DF32
:1006F00008C0161617061806991FF1CF86957105C2
:10070000610508940895E894BB2766277727CB01F5
:1007100097F90895B2DF08F48FEF08950BD078C0F1
:1007200069D028F06ED018F0952309F05AC05FC048
:100730001124EACFC6DFA0F3959FD1F3950F50E0C7
:10074000551F629FF001729FBB27F00DB11D639F83
:10075000AA27F00DB11DAA1F649F6627B00DA11D29
:10076000661F829F2227B00DA11D621F739FB00DCF
:10077000A11D621F839FA00D611D221F749F33273F
:10078000A00D611D231F849F600D211D822F762FD8
:100790006A2F11249F5750408AF0E1F088234AF0D5
:1007A000EE0FFF1FBB1F661F771F881F9150504021
:1007B000A9F79E3F510570F014C0A6CF5F3FECF340
:1007C000983EDCF3869577956795B795F795E7950D
:1007D0009F5FC1F7FE2B880F911D9695879597F91E
:1007E000089597F99F6780E870E060E008959FEFB3
:1007F00080EC089500240A941616170618060906B8
:10080000089500240A941216130614060506089586
:10081000092E0394000C11F4882352F0BB0F40F40E
:10082000BF2B11F460FF04C06F5F7F4F8F4F9F4F4E
:100830000895FB019F01E8944230C4F04532B4F4BE
:100840004A3029F497FB1EF4909581959F4F642FB1
:1008500077270E944A04805D8A330CF0895D81937A
:10086000CB010097A1F716F45DE251931082C90104
:100870000C943A04DC01FC01672F71917723E1F7B6
:10088000329704C07C916D9370836291AE17BF075D
:10089000C8F30895AA1BBB1B51E107C0AA1FBB1FC9
:1008A000A617B70710F0A61BB70B881F991F5A95FC
:1008B000A9F780959095BC01CD010895F894FFCFDC
:1008C0002020202020202020202020202020202028
:1008D0000057656C636F6D6520746F0053776170AE
:1008E0006E65656C27732077656174686572207327
:1008F000746174696F6E210054656D706572617406
:0E0900007572653A004C696768743A000040F1
:00000001FF
