:100000000C9434000C943E000C943E000C943E0082
:100010000C943E000C943E000C943E000C943E0068
:100020000C943E000C943E000C943E000C943E0058
:100030000C943E000C943E000C943E000C943E0048
:100040000C943E000C943E000C943E000C943E0038
:100050000C943E000C943E000C943E000C943E0028
:100060000C943E000C943E0011241FBECFEFD8E04C
:10007000DEBFCDBF0E945B000C949D000C9400007D
:100080001092C50087E68093C40088E18093C10088
:100090008EE08093C2000895982F8091C00085FF64
:1000A000FCCF9093C60008958091C00087FFFCCFDD
:1000B0008091C60008951092C50087E68093C40021
:1000C00088E18093C1008EE08093C2008FEF85B9F4
:1000D00020E931E062E752E647E619990EC084EF65
:1000E00091E0F9013197F1F70197D9F78091C000BC
:1000F00085FFFCCF6093C600F0CF1A990EC084EF45
:1001000091E0F9013197F1F70197D9F78091C0009B
:1001100085FFFCCF4093C600E0CF1B99DECF84EF74
:1001200091E0F9013197F1F70197D9F78091C0007B
:0E01300085FFFCCF5093C600D0CFF894FFCFD0
:00000001FF
