:1000000012C0C9C020C01FC01EC01DC01CC01BC064
:100010001AC019C018C017C016C015C014C013C02C
:1000200012C011C010C011241FBECFE5D4E0DEBF46
:10003000CDBF10E0A0E6B0E001C01D92A236B1072E
:10004000E1F758D062C1DCCFEF92FF920F931F937C
:10005000CF93DF938B01EA0179019C0140E050E0EE
:1000600060E472E48FE090E0D0D02150304030BDA9
:1000700029B90130110511F482E08BB988E18AB900
:10008000C730D10579F0C830D1051CF4269799F412
:1000900006C0C830D10549F0299769F409C080B578
:1000A000826008C080B5846005C080B5866002C0EB
:1000B00080B58E6080BD88E880BDE114F10429F030
:1000C00081E0E816F10439F403C080B5806202C013
:1000D00080B5806380BDDF91CF911F910F91FF901C
:1000E000EF9008955D9BFECF8CB908955F9BFECF86
:1000F0008CB1089584E081BB82BB86E087BB80E839
:1001000095E260E070E048E050E020E030E09CDF05
:1001100078948BB780648BBF85B7826085BF8EB5BE
:1001200085608EBD1DBC1CBC8CB59DB5815E9E429C
:1001300010F0C29A01C0C298C198F6CF8EB5856002
:100140008EBD1DBC1CBC08950F931F93DF93CF93EE
:10015000CDB7DEB729970FB6F894DEBF0FBECDBF7F
:100160008E010F5F1F4FB8014AE050E08BD0F801BD
:1001700004C05D9BFECF8CB9319680818823C9F77E
:1001800029960FB6F894DEBF0FBECDBFCF91DF9199
:100190001F910F9108951F920F920FB60F92112485
:1001A0002F933F934F935F936F937F938F939F937F
:1001B000AF93BF93EF93FF938CB59DB5805E9E4246
:1001C00080F48CB59DB590936100809360001DBC58
:1001D0001CBC8091600090916100B6DFC298C19A0A
:1001E00003C01DBC1CBCC29AFF91EF91BF91AF919F
:1001F0009F918F917F916F915F914F913F912F913F
:100200000F900FBE0F901F90189597FB092E052693
:100210000ED057FD04D014D00AD0001C38F45095ED
:100220004095309521953F4F4F4F5F4F0895F6F71A
:1002300090958095709561957F4F8F4F9F4F089552
:10024000A1E21A2EAA1BBB1BFD010DC0AA1FBB1FDA
:10025000EE1FFF1FA217B307E407F50720F0A21B4C
:10026000B30BE40BF50B661F771F881F991F1A94B9
:1002700069F760957095809590959B01AC01BD01E3
:10028000CF010895FB019F01E8944230BCF0453254
:10029000ACF44A3029F497FB1EF4909581959F4F5A
:1002A000642F77271ED0805D8A330CF0895D81939F
:1002B000CB010097A9F716F45DE251931082C901B2
:1002C00000C0DC01FC01672F71917723E1F73297C1
:1002D00004C07C916D9370836291AE17BF07C8F321
:1002E0000895AA1BBB1B51E107C0AA1FBB1FA6177D
:1002F000B70710F0A61BB70B881F991F5A95A9F7CF
:0E03000080959095BC01CD010895F894FFCF33
:00000001FF
